{
  "_format": "hh-sol-artifact-1",
  "contractName": "Compound",
  "sourceName": "contracts/Compound.sol",
  "abi": [
    {
      "anonymous": false,
      "inputs": [
        {
          "indexed": false,
          "internalType": "address",
          "name": "",
          "type": "address"
        },
        {
          "indexed": false,
          "internalType": "uint256",
          "name": "",
          "type": "uint256"
        }
      ],
      "name": "BorrowDone",
      "type": "event"
    },
    {
      "anonymous": false,
      "inputs": [
        {
          "indexed": false,
          "internalType": "address",
          "name": "",
          "type": "address"
        },
        {
          "indexed": false,
          "internalType": "uint256",
          "name": "",
          "type": "uint256"
        }
      ],
      "name": "DepositDone",
      "type": "event"
    },
    {
      "anonymous": false,
      "inputs": [
        {
          "indexed": false,
          "internalType": "uint256",
          "name": "",
          "type": "uint256"
        }
      ],
      "name": "PayBackDone",
      "type": "event"
    },
    {
      "anonymous": false,
      "inputs": [
        {
          "indexed": false,
          "internalType": "uint256",
          "name": "",
          "type": "uint256"
        }
      ],
      "name": "WithDrawDone",
      "type": "event"
    },
    {
      "inputs": [
        {
          "internalType": "address",
          "name": "_tokenToBorrow",
          "type": "address"
        },
        {
          "internalType": "address",
          "name": "_cTokenToBorrow",
          "type": "address"
        },
        {
          "internalType": "uint256",
          "name": "_decimals",
          "type": "uint256"
        },
        {
          "internalType": "uint256",
          "name": "_amount",
          "type": "uint256"
        },
        {
          "internalType": "address[]",
          "name": "cTokens",
          "type": "address[]"
        }
      ],
      "name": "Borrow",
      "outputs": [],
      "stateMutability": "nonpayable",
      "type": "function"
    },
    {
      "inputs": [
        {
          "internalType": "uint256",
          "name": "_amount",
          "type": "uint256"
        },
        {
          "internalType": "address",
          "name": "_ctoken",
          "type": "address"
        },
        {
          "internalType": "address",
          "name": "_token",
          "type": "address"
        }
      ],
      "name": "Deposit",
      "outputs": [],
      "stateMutability": "nonpayable",
      "type": "function"
    },
    {
      "inputs": [
        {
          "internalType": "address",
          "name": "_tokenBorrowed",
          "type": "address"
        },
        {
          "internalType": "address",
          "name": "_cTokenBorrowed",
          "type": "address"
        },
        {
          "internalType": "uint256",
          "name": "_amount",
          "type": "uint256"
        }
      ],
      "name": "PayBack",
      "outputs": [],
      "stateMutability": "nonpayable",
      "type": "function"
    },
    {
      "inputs": [
        {
          "internalType": "address",
          "name": "_ctoken",
          "type": "address"
        },
        {
          "internalType": "address",
          "name": "_token",
          "type": "address"
        },
        {
          "internalType": "uint256",
          "name": "ctoken_amount",
          "type": "uint256"
        }
      ],
      "name": "WithDraw",
      "outputs": [],
      "stateMutability": "nonpayable",
      "type": "function"
    },
    {
      "stateMutability": "payable",
      "type": "receive"
    }
  ],
  "bytecode": "0x6080604052733d9819210a31b4961b30ef54be2aed79b9c9cd3b6000806101000a81548173ffffffffffffffffffffffffffffffffffffffff021916908373ffffffffffffffffffffffffffffffffffffffff16021790555073922018674c12a7f0d394ebeef9b58f186cde13c1600160006101000a81548173ffffffffffffffffffffffffffffffffffffffff021916908373ffffffffffffffffffffffffffffffffffffffff16021790555060006002553480156100be57600080fd5b50611af9806100ce6000396000f3fe6080604052600436106100435760003560e01c80635b3642241461004f578063a3d2cbcb14610078578063a9987de8146100a1578063ec37a407146100ca5761004a565b3661004a57005b600080fd5b34801561005b57600080fd5b5061007660048036038101906100719190610fbc565b6100f3565b005b34801561008457600080fd5b5061009f600480360381019061009a919061112d565b6103b4565b005b3480156100ad57600080fd5b506100c860048036038101906100c3919061100b565b610717565b005b3480156100d657600080fd5b506100f160048036038101906100ec9190610fbc565b610bcd565b005b600083905060008390508173ffffffffffffffffffffffffffffffffffffffff1663095ea7b385856040518363ffffffff1660e01b81526004016101389291906113b5565b602060405180830381600087803b15801561015257600080fd5b505af1158015610166573d6000803e3d6000fd5b505050506040513d601f19601f8201168201806040525081019061018a91906110db565b508173ffffffffffffffffffffffffffffffffffffffff166323b872dd3330866040518463ffffffff1660e01b81526004016101c89392919061137e565b602060405180830381600087803b1580156101e257600080fd5b505af11580156101f6573d6000803e3d6000fd5b505050506040513d601f19601f8201168201806040525081019061021a91906110db565b508173ffffffffffffffffffffffffffffffffffffffff1663a9059cbb85856040518363ffffffff1660e01b81526004016102569291906113b5565b602060405180830381600087803b15801561027057600080fd5b505af1158015610284573d6000803e3d6000fd5b505050506040513d601f19601f820116820180604052508101906102a891906110db565b5060008173ffffffffffffffffffffffffffffffffffffffff16630e752702856040518263ffffffff1660e01b81526004016102e491906114e0565b602060405180830381600087803b1580156102fe57600080fd5b505af1158015610312573d6000803e3d6000fd5b505050506040513d601f19601f820116820180604052508101906103369190611104565b14610376576040517f08c379a000000000000000000000000000000000000000000000000000000000815260040161036d906114c0565b60405180910390fd5b7fa4ea2c47fb9d8128332a43b07d6e4a67ef81185b9e58cc69935a4cdbd7095a21836040516103a591906114e0565b60405180910390a15050505050565b600082905060008290508073ffffffffffffffffffffffffffffffffffffffff166323b872dd3330886040518463ffffffff1660e01b81526004016103fb9392919061137e565b602060405180830381600087803b15801561041557600080fd5b505af1158015610429573d6000803e3d6000fd5b505050506040513d601f19601f8201168201806040525081019061044d91906110db565b508073ffffffffffffffffffffffffffffffffffffffff1663095ea7b385876040518363ffffffff1660e01b81526004016104899291906113b5565b602060405180830381600087803b1580156104a357600080fd5b505af11580156104b7573d6000803e3d6000fd5b505050506040513d601f19601f820116820180604052508101906104db91906110db565b5060008273ffffffffffffffffffffffffffffffffffffffff166370a08231306040518263ffffffff1660e01b81526004016105179190611363565b60206040518083038186803b15801561052f57600080fd5b505afa158015610543573d6000803e3d6000fd5b505050506040513d601f19601f820116820180604052508101906105679190611104565b905060008373ffffffffffffffffffffffffffffffffffffffff1663a0712d68886040518263ffffffff1660e01b81526004016105a491906114e0565b602060405180830381600087803b1580156105be57600080fd5b505af11580156105d2573d6000803e3d6000fd5b505050506040513d601f19601f820116820180604052508101906105f69190611104565b14610636576040517f08c379a000000000000000000000000000000000000000000000000000000000815260040161062d90611460565b60405180910390fd5b60008373ffffffffffffffffffffffffffffffffffffffff166370a08231306040518263ffffffff1660e01b81526004016106719190611363565b60206040518083038186803b15801561068957600080fd5b505afa15801561069d573d6000803e3d6000fd5b505050506040513d601f19601f820116820180604052508101906106c19190611104565b905081816106cf91906117be565b6002819055507f5c5c52faf0379d6438710fab5583f7bf4001bbc1c48b855499e7f9a7183e0fec33886040516107069291906113b5565b60405180910390a150505050505050565b600084905060008690506000600160009054906101000a900473ffffffffffffffffffffffffffffffffffffffff16905060008060009054906101000a900473ffffffffffffffffffffffffffffffffffffffff16905060008173ffffffffffffffffffffffffffffffffffffffff1663c2998238876040518263ffffffff1660e01b81526004016107a991906113de565b600060405180830381600087803b1580156107c357600080fd5b505af11580156107d7573d6000803e3d6000fd5b505050506040513d6000823e3d601f19601f82011682018060405250810190610800919061109a565b905060005b81518110156108a4576000828281518110610849577f4e487b7100000000000000000000000000000000000000000000000000000000600052603260045260246000fd5b602002602001015114610891576040517f08c379a0000000000000000000000000000000000000000000000000000000008152600401610888906114a0565b60405180910390fd5b808061089c9061186b565b915050610805565b5060008273ffffffffffffffffffffffffffffffffffffffff16635ec88c79306040518263ffffffff1660e01b81526004016108e09190611363565b60606040518083038186803b1580156108f857600080fd5b505afa15801561090c573d6000803e3d6000fd5b505050506040513d601f19601f82011682018060405250810190610930919061117c565b5091505060008473ffffffffffffffffffffffffffffffffffffffff1663fc57d4df8c6040518263ffffffff1660e01b815260040161096f9190611363565b60206040518083038186803b15801561098757600080fd5b505afa15801561099b573d6000803e3d6000fd5b505050506040513d601f19601f820116820180604052508101906109bf9190611104565b90506000818b600a6109d19190611646565b846109dc9190611764565b6109e691906115c2565b9050898111610a2a576040517f08c379a0000000000000000000000000000000000000000000000000000000008152600401610a2190611480565b60405180910390fd5b8773ffffffffffffffffffffffffffffffffffffffff1663a9059cbb338c6040518363ffffffff1660e01b8152600401610a659291906113b5565b602060405180830381600087803b158015610a7f57600080fd5b505af1158015610a93573d6000803e3d6000fd5b505050506040513d601f19601f82011682018060405250810190610ab791906110db565b5060008873ffffffffffffffffffffffffffffffffffffffff1663c5ebeaec8c6040518263ffffffff1660e01b8152600401610af391906114e0565b602060405180830381600087803b158015610b0d57600080fd5b505af1158015610b21573d6000803e3d6000fd5b505050506040513d601f19601f82011682018060405250810190610b459190611104565b14610b85576040517f08c379a0000000000000000000000000000000000000000000000000000000008152600401610b7c90611400565b60405180910390fd5b7f1d63a114320651e3681853a5c7802c8bc62063229ae4bb317f257a67c59322438c8b604051610bb69291906113b5565b60405180910390a150505050505050505050505050565b60008390506000839050826002541015610c1c576040517f08c379a0000000000000000000000000000000000000000000000000000000008152600401610c1390611440565b60405180910390fd5b8173ffffffffffffffffffffffffffffffffffffffff1663095ea7b386856040518363ffffffff1660e01b8152600401610c579291906113b5565b602060405180830381600087803b158015610c7157600080fd5b505af1158015610c85573d6000803e3d6000fd5b505050506040513d601f19601f82011682018060405250810190610ca991906110db565b610ce8576040517f08c379a0000000000000000000000000000000000000000000000000000000008152600401610cdf90611420565b60405180910390fd5b8073ffffffffffffffffffffffffffffffffffffffff1663a9059cbb338373ffffffffffffffffffffffffffffffffffffffff166370a08231306040518263ffffffff1660e01b8152600401610d3e9190611363565b60206040518083038186803b158015610d5657600080fd5b505afa158015610d6a573d6000803e3d6000fd5b505050506040513d601f19601f82011682018060405250810190610d8e9190611104565b6040518363ffffffff1660e01b8152600401610dab9291906113b5565b602060405180830381600087803b158015610dc557600080fd5b505af1158015610dd9573d6000803e3d6000fd5b505050506040513d601f19601f82011682018060405250810190610dfd91906110db565b507fb7cf9913492767d0c7df3a9cc73f0edf8f3e9ea1d9beabc7040a488368b7f02c83604051610e2d91906114e0565b60405180910390a15050505050565b6000610e4f610e4a84611520565b6114fb565b90508083825260208201905082856020860282011115610e6e57600080fd5b60005b85811015610e9e5781610e848882610f14565b845260208401935060208301925050600181019050610e71565b5050509392505050565b6000610ebb610eb68461154c565b6114fb565b90508083825260208201905082856020860282011115610eda57600080fd5b60005b85811015610f0a5781610ef08882610fa7565b845260208401935060208301925050600181019050610edd565b5050509392505050565b600081359050610f2381611a7e565b92915050565b600082601f830112610f3a57600080fd5b8135610f4a848260208601610e3c565b91505092915050565b600082601f830112610f6457600080fd5b8151610f74848260208601610ea8565b91505092915050565b600081519050610f8c81611a95565b92915050565b600081359050610fa181611aac565b92915050565b600081519050610fb681611aac565b92915050565b600080600060608486031215610fd157600080fd5b6000610fdf86828701610f14565b9350506020610ff086828701610f14565b925050604061100186828701610f92565b9150509250925092565b600080600080600060a0868803121561102357600080fd5b600061103188828901610f14565b955050602061104288828901610f14565b945050604061105388828901610f92565b935050606061106488828901610f92565b925050608086013567ffffffffffffffff81111561108157600080fd5b61108d88828901610f29565b9150509295509295909350565b6000602082840312156110ac57600080fd5b600082015167ffffffffffffffff8111156110c657600080fd5b6110d284828501610f53565b91505092915050565b6000602082840312156110ed57600080fd5b60006110fb84828501610f7d565b91505092915050565b60006020828403121561111657600080fd5b600061112484828501610fa7565b91505092915050565b60008060006060848603121561114257600080fd5b600061115086828701610f92565b935050602061116186828701610f14565b925050604061117286828701610f14565b9150509250925092565b60008060006060848603121561119157600080fd5b600061119f86828701610fa7565b93505060206111b086828701610fa7565b92505060406111c186828701610fa7565b9150509250925092565b60006111d783836111e3565b60208301905092915050565b6111ec816117f2565b82525050565b6111fb816117f2565b82525050565b600061120c82611588565b61121681856115a0565b935061122183611578565b8060005b8381101561125257815161123988826111cb565b975061124483611593565b925050600181019050611225565b5085935050505092915050565b600061126c600d836115b1565b91506112778261195f565b602082019050919050565b600061128f600f836115b1565b915061129a82611988565b602082019050919050565b60006112b2601a836115b1565b91506112bd826119b1565b602082019050919050565b60006112d5600b836115b1565b91506112e0826119da565b602082019050919050565b60006112f86017836115b1565b915061130382611a03565b602082019050919050565b600061131b601f836115b1565b915061132682611a2c565b602082019050919050565b600061133e600f836115b1565b915061134982611a55565b602082019050919050565b61135d81611830565b82525050565b600060208201905061137860008301846111f2565b92915050565b600060608201905061139360008301866111f2565b6113a060208301856111f2565b6113ad6040830184611354565b949350505050565b60006040820190506113ca60008301856111f2565b6113d76020830184611354565b9392505050565b600060208201905081810360008301526113f88184611201565b905092915050565b600060208201905081810360008301526114198161125f565b9050919050565b6000602082019050818103600083015261143981611282565b9050919050565b60006020820190508181036000830152611459816112a5565b9050919050565b60006020820190508181036000830152611479816112c8565b9050919050565b60006020820190508181036000830152611499816112eb565b9050919050565b600060208201905081810360008301526114b98161130e565b9050919050565b600060208201905081810360008301526114d981611331565b9050919050565b60006020820190506114f56000830184611354565b92915050565b6000611505611516565b9050611511828261183a565b919050565b6000604051905090565b600067ffffffffffffffff82111561153b5761153a611912565b5b602082029050602081019050919050565b600067ffffffffffffffff82111561156757611566611912565b5b602082029050602081019050919050565b6000819050602082019050919050565b600081519050919050565b6000602082019050919050565b600082825260208201905092915050565b600082825260208201905092915050565b60006115cd82611830565b91506115d883611830565b9250826115e8576115e76118e3565b5b828204905092915050565b6000808291508390505b600185111561163d57808604811115611619576116186118b4565b5b60018516156116285780820291505b808102905061163685611952565b94506115fd565b94509492505050565b600061165182611830565b915061165c83611830565b92506116897fffffffffffffffffffffffffffffffffffffffffffffffffffffffffffffffff8484611691565b905092915050565b6000826116a1576001905061175d565b816116af576000905061175d565b81600181146116c557600281146116cf576116fe565b600191505061175d565b60ff8411156116e1576116e06118b4565b5b8360020a9150848211156116f8576116f76118b4565b5b5061175d565b5060208310610133831016604e8410600b84101617156117335782820a90508381111561172e5761172d6118b4565b5b61175d565b61174084848460016115f3565b92509050818404811115611757576117566118b4565b5b81810290505b9392505050565b600061176f82611830565b915061177a83611830565b9250817fffffffffffffffffffffffffffffffffffffffffffffffffffffffffffffffff04831182151516156117b3576117b26118b4565b5b828202905092915050565b60006117c982611830565b91506117d483611830565b9250828210156117e7576117e66118b4565b5b828203905092915050565b60006117fd82611810565b9050919050565b60008115159050919050565b600073ffffffffffffffffffffffffffffffffffffffff82169050919050565b6000819050919050565b61184382611941565b810181811067ffffffffffffffff8211171561186257611861611912565b5b80604052505050565b600061187682611830565b91507fffffffffffffffffffffffffffffffffffffffffffffffffffffffffffffffff8214156118a9576118a86118b4565b5b600182019050919050565b7f4e487b7100000000000000000000000000000000000000000000000000000000600052601160045260246000fd5b7f4e487b7100000000000000000000000000000000000000000000000000000000600052601260045260246000fd5b7f4e487b7100000000000000000000000000000000000000000000000000000000600052604160045260246000fd5b6000601f19601f8301169050919050565b60008160011c9050919050565b7f426f72726f77204661696c656400000000000000000000000000000000000000600082015250565b7f417070726f7665204661696c6564210000000000000000000000000000000000600082015250565b7f43686f6f7365204c6f77657220416d6f756e742056616c756521000000000000600082015250565b7f4d696e74204661696c6564000000000000000000000000000000000000000000600082015250565b7f43616e277420426f72726f772054686973204d75636821000000000000000000600082015250565b7f436f6d7074726f6c6c657220456e7465724d61726b657473204661696c732100600082015250565b7f5061794261636b204661696c6564210000000000000000000000000000000000600082015250565b611a87816117f2565b8114611a9257600080fd5b50565b611a9e81611804565b8114611aa957600080fd5b50565b611ab581611830565b8114611ac057600080fd5b5056fea264697066735822122079455338da4801affd0f7bb590b588e31a60ebd9b6f37a85813ec9dcb2d5706264736f6c63430008030033",
  "linkReferences": {},
  "deployedLinkReferences": {}
}